{
  "context": {
    "difficulty": "3755480783",
    "gasLimit": "5401723",
    "miner": "0xd049bfd667cb46aa3ef5df0da3e57db3be39e511",
    "number": "2294702",
    "timestamp": "1513676146"
  },
  "genesis": {
    "alloc": {
      "0xca7a99380131e6c76cfa622396347107aeedca2d": {
        "balance": "0x4d3351e2f8200000",
        "code": "0x",
        "nonce": "9",
        "storage": {}
      },
      "0xe213d8b68ca3d01e51a6dba669de59ac9a8359ee": {
        "balance": "0x0",
        "code": "0x608060405234801561001057600080fd5b5060043610610069576000357c01000000000000000000000000000000000000000000000000000000009004806306fdde031461006e578063160d2ed0146100f1578063262a9dff14610257578063fcf5ed0614610275575b600080fd5b6100766102bf565b6040518080602001828103825283818151815260200191508051906020019080838360005b838110156100b657808201518184015260208101905061009b565b50505050905090810190601f1680156100e35780820380516001836020036101000a031916815260200191505b509250505060405180910390f35b6102556004803603608081101561010757600080fd5b810190808035906020019064010000000081111561012457600080fd5b82018360208201111561013657600080fd5b8035906020019184600183028401116401000000008311171561015857600080fd5b91908080601f016020809104026020016040519081016040528093929190818152602001838380828437600081840152601f19601f82011690508083019250505050505050919291929080359060200190929190803590602001906401000000008111156101c557600080fd5b8201836020820111156101d757600080fd5b803590602001918460018302840111640100000000831117156101f957600080fd5b91908080601f016020809104026020016040519081016040528093929190818152602001838380828437600081840152601f19601f8201169050808301925050505050505091929192908035906020019092919050505061035d565b005b61025f610462565b6040518082815260200191505060405180910390f35b61027d610468565b604051808273ffffffffffffffffffffffffffffffffffffffff1673ffffffffffffffffffffffffffffffffffffffff16815260200191505060405180910390f35b60008054600181600116156101000203166002900480601f0160208091040260200160405190810160405280929190818152602001828054600181600116156101000203166002900480156103555780601f1061032a57610100808354040283529160200191610355565b820191906000526020600020905b81548152906001019060200180831161033857829003601f168201915b505050505081565b818160405161036b9061048e565b8080602001838152602001828103825284818151815260200191508051906020019080838360005b838110156103ae578082015181840152602081019050610393565b50505050905090810190601f1680156103db5780820380516001836020036101000a031916815260200191505b509350505050604051809103906000f0801580156103fd573d6000803e3d6000fd5b50600260006101000a81548173ffffffffffffffffffffffffffffffffffffffff021916908373ffffffffffffffffffffffffffffffffffffffff160217905550836000908051906020019061045492919061049b565b508260018190555050505050565b60015481565b600260009054906101000a900473ffffffffffffffffffffffffffffffffffffffff1681565b6103358061054183390190565b828054600181600116156101000203166002900490600052602060002090601f016020900481019282601f106104dc57805160ff191683800117855561050a565b8280016001018555821561050a579182015b828111156105095782518255916020019190600101906104ee565b5b509050610517919061051b565b5090565b61053d91905b80821115610539576000816000905550600101610521565b5090565b9056fe608060405234801561001057600080fd5b506040516103353803806103358339810180604052604081101561003357600080fd5b81019080805164010000000081111561004b57600080fd5b8281019050602081018481111561006157600080fd5b815185600182028301116401000000008211171561007e57600080fd5b50509291906020018051906020019092919050505081600090805190602001906100a99291906100b8565b5080600181905550505061015d565b828054600181600116156101000203166002900490600052602060002090601f016020900481019282601f106100f957805160ff1916838001178555610127565b82800160010185558215610127579182015b8281111561012657825182559160200191906001019061010b565b5b5090506101349190610138565b5090565b61015a91905b8082111561015657600081600090555060010161013e565b5090565b90565b6101c98061016c6000396000f3fe608060405234801561001057600080fd5b5060043610610053576000357c01000000000000000000000000000000000000000000000000000000009004806306fdde0314610058578063262a9dff146100db575b600080fd5b6100606100f9565b6040518080602001828103825283818151815260200191508051906020019080838360005b838110156100a0578082015181840152602081019050610085565b50505050905090810190601f1680156100cd5780820380516001836020036101000a031916815260200191505b509250505060405180910390f35b6100e3610197565b6040518082815260200191505060405180910390f35b60008054600181600116156101000203166002900480601f01602080910402602001604051908101604052809291908181526020018280546001816001161561010002031660029004801561018f5780601f106101645761010080835404028352916020019161018f565b820191906000526020600020905b81548152906001019060200180831161017257829003601f168201915b505050505081565b6001548156fea165627a7a72305820f533e6576b68db195c74bfd2c7cf3342bed686f7be1afd2664c4fbd44a0198ee0029a165627a7a72305820ee16a4449d9a61a2f830b6eb4cabb3539fd5cc525ea6887595e1f11e684d976c0029",
        "nonce": "1",
        "storage": {}
      }
    },
    "config": {
      "byzantiumBlock": 1700000,
      "chainId": 3,
      "daoForkSupport": true,
      "eip150Block": 0,
      "eip150Hash": "0x41941023680923e0fe4d74a34bdac8141f2540e3ae90623718e47d66d1ca4a2d",
      "eip155Block": 10,
      "eip158Block": 10,
      "ethash": {},
      "homesteadBlock": 0
    },
    "difficulty": "3757315409",
    "extraData": "0x566961425443",
    "gasLimit": "5406414",
    "hash": "0xae107f592eebdd9ff8d6ba00363676096e6afb0e1007a7d3d0af88173077378d",
    "miner": "0xd049bfd667cb46aa3ef5df0da3e57db3be39e511",
    "mixHash": "0xc927aa05a38bc3de864e95c33b3ae559d3f39c4ccd51cef6f113f9c50ba0caf1",
    "nonce": "0x93363bbd2c95f410",
    "number": "2294701",
    "stateRoot": "0x6b6737d5bde8058990483e915866bd1578014baeff57bd5e4ed228a2bfad635c",
    "timestamp": "1513676127",
    "totalDifficulty": "7160808139332585"
  },
  "input": "0xf9016b09208802699a8f17c1000094e213d8b68ca3d01e51a6dba669de59ac9a8359ee80b90104160d2ed00000000000000000000000000000000000000000000000000000000000000080000000000000000000000000000000000000000000000000000000000000006400000000000000000000000000000000000000000000000000000000000000c0000000000000000000000000000000000000000000000000000000000000001400000000000000000000000000000000000000000000000000000000000000036d6f6d0000000000000000000000000000000000000000000000000000000000000000000000000000000000000000000000000000000000000000000000000364617500000000000000000000000000000000000000000000000000000000002aa03a8573b97799e5bac8f1aa6ff2f8857a1845fa56b965d0f55ce0efb679f2c509a04ee437ac424886080ce13bc2cecca00295d1409d5605b239ad50987e3a036a03",
  "result": {
    "type": "CALL",
    "from": "0xca7a99380131e6c76cfa622396347107aeedca2d",
    "to": "0xe213d8b68ca3d01e51a6dba669de59ac9a8359ee",
    "value": "0x0",
    "gas": "0x17c0a5e8",
    "gasUsed": "0x2888f",
    "input": "0x160d2ed00000000000000000000000000000000000000000000000000000000000000080000000000000000000000000000000000000000000000000000000000000006400000000000000000000000000000000000000000000000000000000000000c0000000000000000000000000000000000000000000000000000000000000001400000000000000000000000000000000000000000000000000000000000000036d6f6d000000000000000000000000000000000000000000000000000000000000000000000000000000000000000000000000000000000000000000000000036461750000000000000000000000000000000000000000000000000000000000",
    "error": "execution reverted",
    "time": "2.218877542s",
    "calls": [
      {
        "type": "CREATE",
        "from": "0xe213d8b68ca3d01e51a6dba669de59ac9a8359ee",
        "value": "0x0",
        "gas": "0xdb612228",
        "gasUsed": "0x20530",
        "input": "0x608060405234801561001057600080fd5b506040516103353803806103358339810180604052604081101561003357600080fd5b81019080805164010000000081111561004b57600080fd5b8281019050602081018481111561006157600080fd5b815185600182028301116401000000008211171561007e57600080fd5b50509291906020018051906020019092919050505081600090805190602001906100a99291906100b8565b5080600181905550505061015d565b828054600181600116156101000203166002900490600052602060002090601f016020900481019282601f106100f957805160ff1916838001178555610127565b82800160010185558215610127579182015b8281111561012657825182559160200191906001019061010b565b5b5090506101349190610138565b5090565b61015a91905b8082111561015657600081600090555060010161013e565b5090565b90565b6101c98061016c6000396000f3fe608060405234801561001057600080fd5b5060043610610053576000357c01000000000000000000000000000000000000000000000000000000009004806306fdde0314610058578063262a9dff146100db575b600080fd5b6100606100f9565b6040518080602001828103825283818151815260200191508051906020019080838360005b838110156100a0578082015181840152602081019050610085565b50505050905090810190601f1680156100cd5780820380516001836020036101000a031916815260200191505b509250505060405180910390f35b6100e3610197565b6040518082815260200191505060405180910390f35b60008054600181600116156101000203166002900480601f01602080910402602001604051908101604052809291908181526020018280546001816001161561010002031660029004801561018f5780601f106101645761010080835404028352916020019161018f565b820191906000526020600020905b81548152906001019060200180831161017257829003601f168201915b505050505081565b6001548156fea165627a7a72305820f533e6576b68db195c74bfd2c7cf3342bed686f7be1afd2664c4fbd44a0198ee00290000000000000000000000000000000000000000000000000000000000000040000000000000000000000000000000000000000000000000000000000000001400000000000000000000000000000000000000000000000000000000000000036461750000000000000000000000000000000000000000000000000000000000",
        "error": "internal failure"
      }
    ]
  }
}
